{
  "contractName": "Ballot",
  "abi": [
    {
      "inputs": [
        {
          "internalType": "uint8",
          "name": "_numProposals",
          "type": "uint8"
        }
      ],
      "payable": false,
      "stateMutability": "nonpayable",
      "type": "constructor"
    },
    {
      "anonymous": false,
      "inputs": [],
      "name": "votingCompleted",
      "type": "event"
    },
    {
      "constant": true,
      "inputs": [],
      "name": "stage",
      "outputs": [
        {
          "internalType": "enum Ballot.Stage",
          "name": "",
          "type": "uint8"
        }
      ],
      "payable": false,
      "stateMutability": "view",
      "type": "function"
    },
    {
      "constant": false,
      "inputs": [
        {
          "internalType": "address",
          "name": "toVoter",
          "type": "address"
        }
      ],
      "name": "register",
      "outputs": [],
      "payable": false,
      "stateMutability": "nonpayable",
      "type": "function"
    },
    {
      "constant": false,
      "inputs": [
        {
          "internalType": "uint8",
          "name": "toProposal",
          "type": "uint8"
        }
      ],
      "name": "vote",
      "outputs": [],
      "payable": false,
      "stateMutability": "nonpayable",
      "type": "function"
    },
    {
      "constant": true,
      "inputs": [],
      "name": "winningProposal",
      "outputs": [
        {
          "internalType": "uint8",
          "name": "_winningProposal",
          "type": "uint8"
        }
      ],
      "payable": false,
      "stateMutability": "view",
      "type": "function"
    }
  ],
  "bytecode": "0x608060405260008060006101000a81548160ff0219169083600381111561002257fe5b021790555034801561003357600080fd5b506040516106f53803806106f58339818101604052602081101561005657600080fd5b810190808051906020019092919050505033600060016101000a81548173ffffffffffffffffffffffffffffffffffffffff021916908373ffffffffffffffffffffffffffffffffffffffff1602179055506002600160008060019054906101000a900473ffffffffffffffffffffffffffffffffffffffff1673ffffffffffffffffffffffffffffffffffffffff1673ffffffffffffffffffffffffffffffffffffffff168152602001908152602001600020600001819055508060ff166002816101229190610153565b5060016000806101000a81548160ff0219169083600381111561014157fe5b021790555042600381905550506101a6565b81548183558181111561017a57818360005260206000209182019101610179919061017f565b5b505050565b6101a391905b8082111561019f5760008082016000905550600101610185565b5090565b90565b610540806101b56000396000f3fe608060405234801561001057600080fd5b506004361061004c5760003560e01c80634420e48614610051578063609ff1bd14610095578063b3f98adc146100b9578063c040e6b8146100ea575b600080fd5b6100936004803603602081101561006757600080fd5b81019080803573ffffffffffffffffffffffffffffffffffffffff169060200190929190505050610116565b005b61009d6102d3565b604051808260ff1660ff16815260200191505060405180910390f35b6100e8600480360360208110156100cf57600080fd5b81019080803560ff169060200190929190505050610388565b005b6100f26104f9565b6040518082600381111561010257fe5b60ff16815260200191505060405180910390f35b600180600381111561012457fe5b6000809054906101000a900460ff16600381111561013e57fe5b1461014857600080fd5b600060019054906101000a900473ffffffffffffffffffffffffffffffffffffffff1673ffffffffffffffffffffffffffffffffffffffff163373ffffffffffffffffffffffffffffffffffffffff161415806101f15750600160008373ffffffffffffffffffffffffffffffffffffffff1673ffffffffffffffffffffffffffffffffffffffff16815260200190815260200160002060010160009054906101000a900460ff165b156101fb576102cf565b60018060008473ffffffffffffffffffffffffffffffffffffffff1673ffffffffffffffffffffffffffffffffffffffff168152602001908152602001600020600001819055506000600160008473ffffffffffffffffffffffffffffffffffffffff1673ffffffffffffffffffffffffffffffffffffffff16815260200190815260200160002060010160006101000a81548160ff021916908315150217905550601e600354014211156102ce5760026000806101000a81548160ff021916908360038111156102c857fe5b02179055505b5b5050565b600060038060038111156102e357fe5b6000809054906101000a900460ff1660038111156102fd57fe5b1461030757600080fd5b600080905060008090505b6002805490508160ff161015610378578160028260ff168154811061033357fe5b9060005260206000200160000154111561036b5760028160ff168154811061035757fe5b906000526020600020016000015491508093505b8080600101915050610312565b506000811161038357fe5b505090565b600280600381111561039657fe5b6000809054906101000a900460ff1660038111156103b057fe5b146103ba57600080fd5b6000600160003373ffffffffffffffffffffffffffffffffffffffff1673ffffffffffffffffffffffffffffffffffffffff16815260200190815260200160002090508060010160009054906101000a900460ff168061042257506002805490508360ff1610155b1561042d57506104f5565b60018160010160006101000a81548160ff021916908315150217905550828160010160016101000a81548160ff021916908360ff160217905550806000015460028460ff168154811061047c57fe5b9060005260206000200160000160008282540192505081905550601e600354014211156104f35760036000806101000a81548160ff021916908360038111156104c157fe5b02179055507f6ac0c89219f0135e3a87cecdf1851abced71da933a0a00e1eada0ef03538235160405160405180910390a15b505b5050565b6000809054906101000a900460ff168156fea265627a7a723158207b311042b4e4f77a2760c3ce687589df6a4b016cd4d6a8c08e290b4d9195057d64736f6c63430005100032",
  "source": "pragma solidity ^0.5.9;\ncontract Ballot {\n\n    struct Voter {\n        uint weight;\n        bool voted;\n        uint8 vote;\n        //address delegate;\n    }\n    struct Proposal {\n        uint voteCount;\n    }\n    enum Stage {Init,Reg, Vote, Done}\n    Stage public stage = Stage.Init;\n    \n    address chairperson;\n    mapping(address => Voter) voters;\n    Proposal[] proposals;\n\n    event votingCompleted();\n    \n    uint startTime;\n    //modifiers\n    modifier validStage(Stage reqStage)\n    { require(stage == reqStage);\n      _;\n    }\n\n\n    /// Create a new ballot with $(_numProposals) different proposals.\n    constructor(uint8 _numProposals) public  {\n        chairperson = msg.sender;\n        voters[chairperson].weight = 2; // weight is 2 for testing purposes\n        proposals.length = _numProposals;\n        stage = Stage.Reg;\n        startTime = now;\n    }\n\n    /// Give $(toVoter) the right to vote on this ballot.\n    /// May only be called by $(chairperson).\n    function register(address toVoter) public validStage(Stage.Reg) {\n        //if (stage != Stage.Reg) {return;}\n        if (msg.sender != chairperson || voters[toVoter].voted) return;\n        voters[toVoter].weight = 1;\n        voters[toVoter].voted = false;\n        if (now > (startTime+ 30 seconds)) {stage = Stage.Vote; }        \n    }\n\n    /// Give a single vote to proposal $(toProposal).\n    function vote(uint8 toProposal) public validStage(Stage.Vote)  {\n       // if (stage != Stage.Vote) {return;}\n        Voter storage sender = voters[msg.sender];\n        if (sender.voted || toProposal >= proposals.length) return;\n        sender.voted = true;\n        sender.vote = toProposal;   \n        proposals[toProposal].voteCount += sender.weight;\n        if (now > (startTime+ 30 seconds)) {stage = Stage.Done; emit votingCompleted();}        \n        \n    }\n\n    function winningProposal() public validStage(Stage.Done) view returns (uint8 _winningProposal) {\n       //if(stage != Stage.Done) {return;}\n        uint256 winningVoteCount = 0;\n        for (uint8 prop = 0; prop < proposals.length; prop++)\n            if (proposals[prop].voteCount > winningVoteCount) {\n                winningVoteCount = proposals[prop].voteCount;\n                _winningProposal = prop;\n            }\n       assert (winningVoteCount > 0);\n\n    }\n}\n\n\n\n",
  "sourcePath": "C:/Users/hritikamayurk/Desktop/Ballot1/contracts/Ballot.sol",
  "compiler": {
    "name": "solc",
    "version": "0.5.16+commit.9c3226ce.Emscripten.clang"
  },
  "schemaVersion": "3.2.3",
  "updatedAt": "2020-08-21T14:36:10.260Z",
  "devdoc": {
    "methods": {}
  },
  "userdoc": {
    "methods": {
      "constructor": "Create a new ballot with $(_numProposals) different proposals.",
      "register(address)": {
        "notice": "Give $(toVoter) the right to vote on this ballot. May only be called by $(chairperson)."
      },
      "vote(uint8)": {
        "notice": "Give a single vote to proposal $(toProposal)."
      }
    }
  }
}